{
  "contractName": "Storage",
  "abi": [
    {
      "constant": true,
      "inputs": [],
      "name": "_initialized",
      "outputs": [
        {
          "name": "",
          "type": "bool"
        }
      ],
      "payable": false,
      "stateMutability": "view",
      "type": "function"
    },
    {
      "constant": true,
      "inputs": [],
      "name": "owner",
      "outputs": [
        {
          "name": "",
          "type": "address"
        }
      ],
      "payable": false,
      "stateMutability": "view",
      "type": "function"
    }
  ],
  "bytecode": "0x608060405234801561001057600080fd5b5061013c806100206000396000f3fe60806040526004361061004c576000357c0100000000000000000000000000000000000000000000000000000000900463ffffffff1680633072cf60146100515780638da5cb5b14610080575b600080fd5b34801561005d57600080fd5b506100666100d7565b604051808215151515815260200191505060405180910390f35b34801561008c57600080fd5b506100956100ea565b604051808273ffffffffffffffffffffffffffffffffffffffff1673ffffffffffffffffffffffffffffffffffffffff16815260200191505060405180910390f35b600560149054906101000a900460ff1681565b600560009054906101000a900473ffffffffffffffffffffffffffffffffffffffff168156fea165627a7a72305820e5ecb917ab292a4c9e233170f8a0bd3f3d3eee1e966103ccadf7b426ee80baa60029",
  "source": "// SPDX-License-Identifier: MIT\r\npragma solidity >=0.4.22 <0.9.0;\r\n\r\ncontract Storage{\r\n\r\n    mapping(string => uint256) _uintStorage;\r\n    mapping(string => address) _addressStorage;\r\n    mapping(string => bool) _boolStorage;\r\n    mapping(string => string) _stringStorage;\r\n    mapping(string => bytes4) _bytesStorage;\r\n\r\n    address public owner;\r\n\r\n    bool public _initialized;    \r\n}",
  "sourcePath": "C:\\Users\\Acer\\newProxyContract\\contracts\\Storage.sol",
  "compiler": {
    "name": "solc",
    "version": "0.5.0+commit.1d4f565a.Emscripten.clang"
  },
  "schemaVersion": "3.0.8",
  "updatedAt": "2023-07-18T16:30:23.201Z",
  "devdoc": {
    "methods": {}
  },
  "userdoc": {
    "methods": {}
  }
}